:040000000DEF00F010
:0400080071EF04F0A0
:10001800FF0055EF04F01250800B1B6E1250122493
:10002800216E11AE1AEF00F01CEF00F01DEF00F08A
:1000380021802150D8B423EF00F025EF00F038EFED
:1000480000F02128D8A42BEF00F02DEF00F035EFB9
:1000580000F0000E0F6E000E106E000E116E000EF6
:10006800126E118E40EF00F0000E0F6E000E106E33
:10007800000E116E000E126E1650800B1B1A1650D1
:100088001624206E15AE4BEF00F04DEF00F04EEF4A
:1000980000F020802050D8B454EF00F056EF00F064
:1000A80069EF00F02028D8A45CEF00F05EEF00F0C4
:1000B80066EF00F0000E136E000E146E000E156E43
:1000C800000E166E158E71EF00F0000E136E000E06
:1000D800146E000E156E000E166E2050D8B477EF11
:1000E80000F079EF00F081EF00F02150D8A47FEF05
:1000F80000F081EF00F08BEF00F0000E0F6E000EA5
:10010800106E000E116E000E126E23EF02F01550E5
:100118000F02F3C426F5F4C427F526501C6E1D6A99
:100128001E6A1F6A2750226E236A246A256A1450A1
:100138001002F3C426F5F4C427F526501C26000E39
:100148001D221E221F2227502226000E232224228F
:10015800252213501102F3C426F5F4C427F52650BE
:100168001C26000E1D221E221F2227502226000EAA
:100178002322242225221EC51FF51DC51EF51CC5D8
:100188001DF51C6A13501002F3C426F5F4C427F5B4
:1001980026501C2627501D22000E1E22000E1F224C
:1001A80014500F02F3C426F5F4C427F526501C2674
:1001B80027501D22000E1E22000E1F221EC51FF5ED
:1001C8001DC51EF51CC51DF51C6A13500F02F3C48E
:1001D80026F5F4C427F526501C2627501D22000EAC
:1001E8001E22000E1F2215501002F3C426F5F4C477
:1001F80027F52650222627502322000E2422000EFF
:10020800252214501102F3C426F5F4C427F526500C
:10021800222627502322000E2422000E25221550C4
:100228001102F3C426F5F4C427F52650176E27509B
:10023800186E196A1A6A19C51AF518C519F517C575
:1002480018F5176A1750222618502322195024220D
:100258001A5025221CC517F51DC518F51EC519F518
:100268001FC51AF5190E3EEF01F0D8901A3219324F
:1002780018321732E82E39EF01F01750222618509D
:100288002322195024221A5025221EC51FF51DC5E8
:100298001EF51CC51DF51C6A205021C517F5186AE6
:1002A8001726000E1822820E1724266EFF0E18201D
:1002B800276E74EF01F0D89022362336243625367F
:1002C8001FAE69EF01F06BEF01F06CEF01F02280D7
:1002D800D8901C361D361E361F362606D8A027068F
:1002E80024AE79EF01F07BEF01F05FEF01F0000E33
:1002F800206E1FAE82EF01F084EF01F0A8EF01F04D
:10030800FF0E1C14176EFF0E1D14186EFF0E1E1420
:10031800196E7F0E1F141A6E1750181019101A1024
:10032800D8B499EF01F09BEF01F09FEF01F0010EB7
:10033800206EA8EF01F022A0A4EF01F0A6EF01F0D3
:10034800A8EF01F09BEF01F02050D8B4AEEF01F018
:10035800B0EF01F0D4EF01F0010E2226000E2322A7
:100368002422252225A0BBEF01F0BDEF01F0D4EF38
:1003780001F022C517F523C518F524C519F525C5BB
:100388001AF51A341A3219321832173217C522F5EB
:1003980018C523F519C524F51AC525F5264A272AAF
:1003A80027BEDFEF01F0275008E12628D8A0DFEFAD
:1003B80001F0E1EF01F0EBEF01F0000E226E000E0C
:1003C800236E800E246E7F0E256E19EF02F027BE75
:1003D800F8EF01F0275006E12604D8B0F6EF01F057
:1003E800F8EF01F004EF02F0000E226E000E236E0B
:1003F800000E246E000E256E000E1B6E19EF02F023
:1004080026C521F5FF0E2216FF0E23167F0E241691
:10041800000E251621A013EF02F015EF02F016EFDB
:1004280002F0248ED8902130256E1B50251222C54B
:100438000FF523C510F524C511F525C512F51200D1
:10044800096E0950D8B42BEF02F02DEF02F04FEFF0
:1004580002F004BE34EF02F032EF02F04FEF02F088
:1004680001C505F502C506F503C507F504C508F578
:10047800051E061E071E081E052A000E0622072254
:10048800082205C50BF506C50CF507C50DF508C509
:100498000EF557EF02F001C50BF502C50CF503C5C3
:1004A8000DF504C50EF50150021003100410D8A470
:1004B80060EF02F062EF02F06CEF02F0000E016EE6
:1004C800000E026E000E036E000E046EFDEF02F0C9
:1004D800960E0A6E76EF02F00A2AD8900E320D3286
:1004E8000C320B32000E0B14056E000E0C14066E47
:1004F800000E0D14076EFE0E0E14086E0550061041
:1005080007100810D8A48BEF02F08DEF02F070EFFF
:1005180002F09BEF02F00A2A010E0B26000E0C22B5
:100528000D220E22D8900E320D320C320B32000EF4
:100538000B14056E000E0C14066E000E0D14076EDB
:10054800FF0E0E14086E0550061007100810D8A4E8
:10055800B0EF02F0B2EF02F08FEF02F0BAEF02F064
:100568000A06D8900B360C360D360E360DBEBFEF88
:1005780002F0C1EF02F0C9EF02F0020E0A60C7EF05
:1005880002F0C9EF02F0B4EF02F00AB0CEEF02F0C9
:10059800D0EF02F0D1EF02F00D9ED8900A320AC5D2
:1005A80005F5066A076A086A05C508F5076A066A4E
:1005B800056A05500B1206500C1207500D12085010
:1005C8000E120950D8B4EBEF02F0EDEF02F0F5EFA0
:1005D80002F004BEF4EF02F0F2EF02F0F5EF02F0E1
:1005E8000E8E0BC501F50CC502F50DC503F50EC53C
:1005F80004F51200C890C892C894C896C898C89ABA
:10060800C89CC89EC990C992C994CA900201AB8B74
:10061800AB8904010083F80E0301F517F351F30BBE
:100628000409F36FC680040100810F0E0301F81757
:10063800F00EF817F38FF399F3810F0EFA6FC68255
:10064800290E0201726F200E296FAB9F010EAF6F4A
:10065800A00EAE6FF00EAB17AC8FCB8204012893BF
:1006680029932C932B832A93010E3FEC04F001501D
:10067800356EE70E136E2E0E146E530E156E3A0E6F
:10068800166E3550016E026A036A046A010E24EC84
:1006980002F001C50FF502C510F503C511F504C533
:1006A80012F50FEC00F00FC528F510C529F511C596
:1006B8002AF512C52BF5BCEC03F02850326E3250E7
:1006C80065EC04F0000E346E000E336E35C542F54D
:1006D80036B002D0C09001D0C08037B002D0C092EE
:1006E80001D0C08238B002D0C09401D0C08439B0E3
:1006F80002D0C09601D0C0863AB002D0C09801D0CE
:10070800C0883BB002D0C09A01D0C08A3CB002D0A9
:10071800C09C01D0C08C3DB002D0C09E01D0C08E1C
:100728003EB002D0BF9A01D0BF8A3FB002D0C1927A
:1007380001D0C18240B002D0C19401D0C18441B07F
:1007480002D0C29001D0C280334A342A34BEB6EFF8
:1007580003F0345009E10C0E335CD8A0B6EF03F077
:10076800B8EF03F06AEF03F038EF03F00DEF00F095
:100778002A342B34316E3150D8A4C5EF03F0C7EFBB
:1007880003F0D1EF03F0000E286E000E296E000E64
:100798002A6E000E2B6E3EEF04F028C52CF529C5F5
:1007A8002DF52AC52EF52BC52FF5200EE1EF03F008
:1007B800D8902F322E322D322C32E82EDCEF03F077
:1007C8002C50306E2A8EFF0E2816FF0E2916FF0EAB
:1007D8002A16000E2B16960E315E31BEF8EF03F086
:1007E800F6EF03F00EEF04F03150800A970FD8B0FF
:1007F80000EF04F002EF04F004EF04F0C7EF03F099
:10080800D8902B322A3229322832313E04EF04F0B4
:1008180026EF04F01F0E316414EF04F016EF04F015
:100828001EEF04F0C7EF03F0D890283629362A3691
:100838002B3631063150D8A424EF04F026EF04F00B
:1008480018EF04F03050D8B42CEF04F02EEF04F079
:1008580036EF04F02B1E2A1E291E286C000E2922B2
:100868002A222B2228C528F529C529F52AC52AF5C3
:100878002BC52BF51200056E05C5ECF30301F381BA
:10088800F3B149EF04F04BEF04F044EF04F0EB51FF
:10089800046E036AEA510324016E000E0420026EFE
:1008A800120001EE36F10C0EEE6AE806FDE10401D5
:1008B800080E5D6F000E5E6F000E5F6F0001FEEFA9
:1008C80002F0016E0201B2AF6CEF04F06EEF04F0BB
:0C08D80066EF04F001C5A3F2120011004D
:020000040020DA
:10000000FF0FFF0FFF0FFF0FFF0FFF0FFF0FFF0F80
:10001000FF0FFF0FFF0FFF0FFF0FFF0FFF0FFF0F70
:10002000FF0FFF0FFF0FFF0FFF0FFF0FFF0FFF0F60
:10003000FF0FFF0FFF0FFF0FFF0FFF0FFF0FFF0F50
:020000040030CA
:0A000000ECFFF7FF9FFFFFFFFFFF7B
:00000001FF
